{
  "contractName": "mikeToken",
  "abi": [
    {
      "inputs": [],
      "payable": false,
      "stateMutability": "nonpayable",
      "type": "constructor"
    },
    {
      "constant": true,
      "inputs": [],
      "name": "totalSupply",
      "outputs": [
        {
          "internalType": "uint256",
          "name": "",
          "type": "uint256"
        }
      ],
      "payable": false,
      "stateMutability": "view",
      "type": "function"
    }
  ],
  "bytecode": "0x6080604052348015600f57600080fd5b50620f42406000819055506084806100286000396000f3fe6080604052348015600f57600080fd5b506004361060285760003560e01c806318160ddd14602d575b600080fd5b60336049565b6040518082815260200191505060405180910390f35b6000548156fea265627a7a723158200e3128e1fdd5de2fefcd205ea1dbe29432b275112a14dcbe56f1e9416f47678464736f6c63430005100032",
  "source": "pragma solidity ^0.5.16;\n\ncontract mikeToken{\n    //declaring state variable public will implicitly create a getter for totalSupply\n    uint256 public totalSupply;\n    constructor() public {\n        totalSupply = 1000000;\n    }\n}",
  "sourcePath": "/home/mike/Documents/personal-projects/token_sale/contracts/mikeToken.sol",
  "compiler": {
    "name": "solc",
    "version": "0.5.16+commit.9c3226ce.Emscripten.clang"
  },
  "schemaVersion": "3.3.3",
  "updatedAt": "2020-12-31T21:00:13.388Z",
  "networkType": "ethereum",
  "devdoc": {
    "methods": {}
  },
  "userdoc": {
    "methods": {}
  }
}